{
  "contractName": "ETHStake",
  "abi": [
    {
      "inputs": [
        {
          "internalType": "address",
          "name": "_FAM",
          "type": "address"
        },
        {
          "internalType": "address",
          "name": "_dataFeed",
          "type": "address"
        }
      ],
      "stateMutability": "nonpayable",
      "type": "constructor"
    },
    {
      "anonymous": false,
      "inputs": [
        {
          "indexed": false,
          "internalType": "address",
          "name": "userAddress",
          "type": "address"
        },
        {
          "indexed": false,
          "internalType": "uint256",
          "name": "amount",
          "type": "uint256"
        }
      ],
      "name": "DepositRegistered",
      "type": "event"
    },
    {
      "anonymous": false,
      "inputs": [
        {
          "indexed": false,
          "internalType": "address",
          "name": "userAddress",
          "type": "address"
        },
        {
          "indexed": false,
          "internalType": "uint256",
          "name": "amount",
          "type": "uint256"
        }
      ],
      "name": "UpdatedRewards",
      "type": "event"
    },
    {
      "anonymous": false,
      "inputs": [
        {
          "indexed": false,
          "internalType": "address",
          "name": "userAddress",
          "type": "address"
        },
        {
          "indexed": false,
          "internalType": "uint256",
          "name": "amount",
          "type": "uint256"
        }
      ],
      "name": "WithdrawRegistered",
      "type": "event"
    },
    {
      "stateMutability": "payable",
      "type": "receive",
      "payable": true
    },
    {
      "inputs": [
        {
          "internalType": "address",
          "name": "_userAddress",
          "type": "address"
        }
      ],
      "name": "getBalance",
      "outputs": [
        {
          "internalType": "uint256",
          "name": "",
          "type": "uint256"
        }
      ],
      "stateMutability": "view",
      "type": "function",
      "constant": true
    },
    {
      "inputs": [],
      "name": "getTotalStaked",
      "outputs": [
        {
          "internalType": "uint256",
          "name": "",
          "type": "uint256"
        }
      ],
      "stateMutability": "view",
      "type": "function",
      "constant": true
    },
    {
      "inputs": [
        {
          "internalType": "address",
          "name": "_userAddress",
          "type": "address"
        }
      ],
      "name": "getPendingRewards",
      "outputs": [
        {
          "internalType": "uint256",
          "name": "",
          "type": "uint256"
        }
      ],
      "stateMutability": "view",
      "type": "function",
      "constant": true
    },
    {
      "inputs": [],
      "name": "deposit",
      "outputs": [],
      "stateMutability": "payable",
      "type": "function",
      "payable": true
    },
    {
      "inputs": [
        {
          "internalType": "uint256",
          "name": "_amount",
          "type": "uint256"
        }
      ],
      "name": "withdraw",
      "outputs": [],
      "stateMutability": "nonpayable",
      "type": "function"
    }
  ],
  "bytecode": "0x6080604052662386f26fc100006004553480156200001c57600080fd5b5060405162000fa538038062000fa5833981810160405281019062000042919062000136565b81600260006101000a81548173ffffffffffffffffffffffffffffffffffffffff021916908373ffffffffffffffffffffffffffffffffffffffff16021790555080600360006101000a81548173ffffffffffffffffffffffffffffffffffffffff021916908373ffffffffffffffffffffffffffffffffffffffff16021790555050506200017d565b600080fd5b600073ffffffffffffffffffffffffffffffffffffffff82169050919050565b6000620000fe82620000d1565b9050919050565b6200011081620000f1565b81146200011c57600080fd5b50565b600081519050620001308162000105565b92915050565b6000806040838503121562000150576200014f620000cc565b5b600062000160858286016200011f565b925050602062000173858286016200011f565b9150509250929050565b610e18806200018d6000396000f3fe60806040526004361061004e5760003560e01c80630917e776146100625780632e1a7d4d1461008d578063d0e30db0146100b6578063f6ed2017146100c0578063f8b2cb4f146100fd5761005d565b3661005d5761005b61013a565b005b600080fd5b34801561006e57600080fd5b506100776102f4565b60405161008491906108e9565b60405180910390f35b34801561009957600080fd5b506100b460048036038101906100af9190610935565b6102fc565b005b6100be61066c565b005b3480156100cc57600080fd5b506100e760048036038101906100e291906109c0565b610676565b6040516100f491906108e9565b60405180910390f35b34801561010957600080fd5b50610124600480360381019061011f91906109c0565b6106bf565b60405161013191906108e9565b60405180910390f35b60045434101561017f576040517f08c379a000000000000000000000000000000000000000000000000000000000815260040161017690610a4a565b60405180910390fd5b60008060003373ffffffffffffffffffffffffffffffffffffffff1673ffffffffffffffffffffffffffffffffffffffff16815260200190815260200160002060000154905060008060003373ffffffffffffffffffffffffffffffffffffffff1673ffffffffffffffffffffffffffffffffffffffff16815260200190815260200160002060010154905034826102179190610a99565b6000803373ffffffffffffffffffffffffffffffffffffffff1673ffffffffffffffffffffffffffffffffffffffff16815260200190815260200160002060000181905550426000803373ffffffffffffffffffffffffffffffffffffffff1673ffffffffffffffffffffffffffffffffffffffff1681526020019081526020016000206001018190555060008211156102b7576102b682823361070a565b5b7fe865f22f57d0ae46c9f05f6677e4138264cb541aeb2c4bc8c82e7a9b3dd4905a33346040516102e8929190610afe565b60405180910390a15050565b600047905090565b60008060003373ffffffffffffffffffffffffffffffffffffffff1673ffffffffffffffffffffffffffffffffffffffff16815260200190815260200160002060000154905060008103610385576040517f08c379a000000000000000000000000000000000000000000000000000000000815260040161037c90610b73565b60405180910390fd5b818110156103c8576040517f08c379a00000000000000000000000000000000000000000000000000000000081526004016103bf90610c05565b60405180910390fd5b814710156103d557600080fd5b60008060003373ffffffffffffffffffffffffffffffffffffffff1673ffffffffffffffffffffffffffffffffffffffff16815260200190815260200160002060010154905060006202a3008261042c9190610a99565b905080421015610471576040517f08c379a000000000000000000000000000000000000000000000000000000000815260040161046890610c71565b60405180910390fd5b838361047d9190610c91565b6000803373ffffffffffffffffffffffffffffffffffffffff1673ffffffffffffffffffffffffffffffffffffffff168152602001908152602001600020600001819055506104cd83833361070a565b6000600160003373ffffffffffffffffffffffffffffffffffffffff1673ffffffffffffffffffffffffffffffffffffffff1681526020019081526020016000205490506000600160003373ffffffffffffffffffffffffffffffffffffffff1673ffffffffffffffffffffffffffffffffffffffff16815260200190815260200160002081905550600260009054906101000a900473ffffffffffffffffffffffffffffffffffffffff1673ffffffffffffffffffffffffffffffffffffffff16637b56c2b233836040518363ffffffff1660e01b81526004016105b3929190610afe565b600060405180830381600087803b1580156105cd57600080fd5b505af11580156105e1573d6000803e3d6000fd5b505050503373ffffffffffffffffffffffffffffffffffffffff166108fc869081150290604051600060405180830381858888f1935050505015801561062b573d6000803e3d6000fd5b507f59945647ef1c847843ee61b123cb5a2b68b6f77f1466683a5c6b7ecd4a8a1cc8338660405161065d929190610afe565b60405180910390a15050505050565b61067461013a565b565b6000600160008373ffffffffffffffffffffffffffffffffffffffff1673ffffffffffffffffffffffffffffffffffffffff168152602001908152602001600020549050919050565b60008060008373ffffffffffffffffffffffffffffffffffffffff1673ffffffffffffffffffffffffffffffffffffffff168152602001908152602001600020600001549050919050565b60006018603c80854261071d9190610c91565b6107279190610cf4565b6107319190610cf4565b61073b9190610cf4565b905060006768155a43676e000090506000600360009054906101000a900473ffffffffffffffffffffffffffffffffffffffff1673ffffffffffffffffffffffffffffffffffffffff16638e15f4736040518163ffffffff1660e01b8152600401602060405180830381865afa1580156107b9573d6000803e3d6000fd5b505050506040513d601f19601f820116820180604052508101906107dd9190610d5b565b9050600082670de0b6b3a7640000612710670de0b6b3a76400008a866108039190610d88565b61080d9190610cf4565b6108179190610cf4565b866108229190610d88565b61082c9190610d88565b6108369190610cf4565b905080600160008773ffffffffffffffffffffffffffffffffffffffff1673ffffffffffffffffffffffffffffffffffffffff16815260200190815260200160002060008282546108879190610a99565b925050819055507ff28ead80696c20d8f2c4b30fe0abc00926c4923c4390de2cdabb35f61074fd6d85826040516108bf929190610afe565b60405180910390a150505050505050565b6000819050919050565b6108e3816108d0565b82525050565b60006020820190506108fe60008301846108da565b92915050565b600080fd5b610912816108d0565b811461091d57600080fd5b50565b60008135905061092f81610909565b92915050565b60006020828403121561094b5761094a610904565b5b600061095984828501610920565b91505092915050565b600073ffffffffffffffffffffffffffffffffffffffff82169050919050565b600061098d82610962565b9050919050565b61099d81610982565b81146109a857600080fd5b50565b6000813590506109ba81610994565b92915050565b6000602082840312156109d6576109d5610904565b5b60006109e4848285016109ab565b91505092915050565b600082825260208201905092915050565b7f4d696e696d756d206465706f73697420697320302e3031204554480000000000600082015250565b6000610a34601b836109ed565b9150610a3f826109fe565b602082019050919050565b60006020820190508181036000830152610a6381610a27565b9050919050565b7f4e487b7100000000000000000000000000000000000000000000000000000000600052601160045260246000fd5b6000610aa4826108d0565b9150610aaf836108d0565b9250827fffffffffffffffffffffffffffffffffffffffffffffffffffffffffffffffff03821115610ae457610ae3610a6a565b5b828201905092915050565b610af881610982565b82525050565b6000604082019050610b136000830185610aef565b610b2060208301846108da565b9392505050565b7f4163636f756e7420697320656d70747900000000000000000000000000000000600082015250565b6000610b5d6010836109ed565b9150610b6882610b27565b602082019050919050565b60006020820190508181036000830152610b8c81610b50565b9050919050565b7f43616e6e6f74207769746864726177206d6f7265207468616e20796f7572206360008201527f757272656e742062616c616e6365000000000000000000000000000000000000602082015250565b6000610bef602e836109ed565b9150610bfa82610b93565b604082019050919050565b60006020820190508181036000830152610c1e81610be2565b9050919050565b7f4465706f7369742069732074696d65206c6f636b656400000000000000000000600082015250565b6000610c5b6016836109ed565b9150610c6682610c25565b602082019050919050565b60006020820190508181036000830152610c8a81610c4e565b9050919050565b6000610c9c826108d0565b9150610ca7836108d0565b925082821015610cba57610cb9610a6a565b5b828203905092915050565b7f4e487b7100000000000000000000000000000000000000000000000000000000600052601260045260246000fd5b6000610cff826108d0565b9150610d0a836108d0565b925082610d1a57610d19610cc5565b5b828204905092915050565b6000819050919050565b610d3881610d25565b8114610d4357600080fd5b50565b600081519050610d5581610d2f565b92915050565b600060208284031215610d7157610d70610904565b5b6000610d7f84828501610d46565b91505092915050565b6000610d93826108d0565b9150610d9e836108d0565b9250817fffffffffffffffffffffffffffffffffffffffffffffffffffffffffffffffff0483118215151615610dd757610dd6610a6a565b5b82820290509291505056fea2646970667358221220c15f7cb52473d46cb19266638868a23770d01c4639461cd41e248bacbaac8c2564736f6c634300080f0033",
  "immutableReferences": {},
  "source": "// SPDX-License-Identifier: MIT\n\npragma solidity 0.8.15;\n\nimport \"../node_modules/@openzeppelin/contracts/token/ERC20/IERC20.sol\";\nimport \"./FAM.sol\";\nimport \"./DataFeedETHUSD.sol\";\n\n/// @title Staking contract for ETH\n/// @notice This contract is used to stake ETH through the Family-Staking app\ncontract ETHStake {\n    // Variables\n    mapping(address => Stake) stakes;\n    mapping(address => uint) pendingRewards;\n\n    struct Stake {\n        uint amount;\n        uint depositDate;\n    }   \n\n    FAM private FAMInstance;\n    DataFeedETHUSD private ETHUSDFeed;\n\n    uint minDeposit = 10000000000000000;\n\n    // Events\n    event DepositRegistered(address userAddress, uint amount);\n    event WithdrawRegistered(address userAddress, uint amount);\n    event UpdatedRewards(address userAddress, uint amount);\n\n    /**\n     * @dev Require the address of the FAM token contract to be able to mint FAM to users\n     * @param _FAM address of the deployed contract\n     */\n    constructor(address _FAM, address _dataFeed) {\n        FAMInstance = FAM(_FAM);\n        ETHUSDFeed = DataFeedETHUSD(_dataFeed);\n    }\n\n    /**\n     * @dev Internal function that register the stake and calculate pending rewards. Used by the stake function and the default receive function. Emits a StakeRegistered event.\n     */ \n    function registerDeposit() internal {\n        require(msg.value >= minDeposit, \"Minimum deposit is 0.01 ETH\");\n\n        uint currentStake = stakes[msg.sender].amount;\n        uint currentDepositDate = stakes[msg.sender].depositDate;\n        // Updating the user stake first\n        stakes[msg.sender].amount = currentStake + msg.value;\n        stakes[msg.sender].depositDate = block.timestamp;\n        // We need to calculate the pending reward amount and store it\n        if(currentStake > 0) {\n            updatePendingRewards(currentStake, currentDepositDate, msg.sender);\n        }        \n        \n        emit DepositRegistered(msg.sender, msg.value);\n    }\n\n    /**\n     * @notice Updates the pending rewards balance of the user\n     * @dev never called from outside of the contract\n     * @param _stakes stake balance of the user\n     * @param _from uint date of last deposit / to calcul from\n     * @param _userAddress address of the user\n     */\n    function updatePendingRewards(uint _stakes, uint _from, address _userAddress) internal{\n        // calculating nbDay since deposit\n        uint nbDay = (block.timestamp - _from) / 60 / 60 / 24;\n        uint FAMValue = 7500000000000000000; // Converted to WEI\n        uint ETHValue = uint(ETHUSDFeed.getLatestPrice());\n        // FAMValue / (NbJour * (0,01% * ((ETHValue * _stakes) / 10^18)))\n        uint FAMReward = ( ( ( nbDay * ( ( ( ETHValue * _stakes ) / 1000000000000000000 ) / 10000 ) ) * 1000000000000000000 ) / FAMValue );\n        // Updating user pending balance\n        pendingRewards[_userAddress] += FAMReward;\n\n        emit UpdatedRewards(_userAddress, FAMReward);\n    }\n\n    /**\n     * @notice Return the provided address balance\n     * @param _userAddress address of the user\n     */ \n    function getBalance(address _userAddress) view external returns(uint){\n        return stakes[_userAddress].amount;\n    }\n\n    /**\n     * @notice Return the total staked DAI tokens \n     * @dev Calls the balanceOf ERC20 function to return the total staked DAI tokens on this contract \n     */ \n    function getTotalStaked() view external returns(uint) {\n        return address(this).balance;\n    }\n\n    /**\n     * @notice Return a user pending reward balance\n     * @param _userAddress address of the user\n     */\n    function getPendingRewards(address _userAddress) view external returns(uint){\n        return pendingRewards[_userAddress];\n    }\n\n    /**\n     * @notice Allow user to stake an amount of ETH and to add this amount to their balance.\n     * @dev Calls the registerStake internal function to process the user balance\n     */ \n    function deposit() payable external {\n        registerDeposit();\n    }\n\n    /**\n     * @notice Allow user to unstake an amount of ETH from their account if balance is sufficient. There is a timelock on deposit of 2 days.\n     * @dev Will revert if the contract ETH balance is not sufficient to fullfill the withdrawal\n     * @param _amount uint - Number of wei to withdraw\n     */\n    function withdraw(uint _amount) external {\n        // verifications on the user balance\n        uint userStake = stakes[msg.sender].amount;\n        require(userStake != 0, \"Account is empty\");\n        require(userStake >= _amount, \"Cannot withdraw more than your current balance\");\n        require(address(this).balance >= _amount);\n        // Storing the current date of reference and calculating the lock release\n        uint referenceDate = stakes[msg.sender].depositDate;\n        uint timeLock = referenceDate + 2 days;\n        require(block.timestamp >= timeLock, \"Deposit is time locked\");\n\n        // Updating the user's stake\n        stakes[msg.sender].amount = userStake - _amount;\n\n        // Calculating and updating the pending rewards amount\n        updatePendingRewards(userStake, referenceDate, msg.sender);\n        uint rewardsToMint = pendingRewards[msg.sender];\n        pendingRewards[msg.sender] = 0;\n        // Minting the rewards to the user using the faucet function of the FAM contract\n        FAMInstance.faucet(msg.sender, rewardsToMint);\n        // Transfering back the amount to the user\n        payable(msg.sender).transfer(_amount);\n        // TODO Error management\n\n        emit WithdrawRegistered(msg.sender, _amount);\n    }\n\n    /**\n     * @notice Fallback function to receive ETH from a transfer or a send. Please note that this is not the preferred method of staking on this contract.\n     */\n    receive() external payable{\n        registerDeposit();\n    }\n}",
  "sourcePath": "/home/yohann/code/Family-staking/truffle/contracts/ETHStake.sol",
  "compiler": {
    "name": "solc",
    "version": "0.8.15+commit.e14f2714.Emscripten.clang"
  },
  "schemaVersion": "3.4.8",
  "updatedAt": "2022-08-07T21:53:06.053Z",
  "networkType": "ethereum",
  "devdoc": {
    "kind": "dev",
    "methods": {
      "constructor": {
        "details": "Require the address of the FAM token contract to be able to mint FAM to users",
        "params": {
          "_FAM": "address of the deployed contract"
        }
      },
      "deposit()": {
        "details": "Calls the registerStake internal function to process the user balance"
      },
      "getBalance(address)": {
        "params": {
          "_userAddress": "address of the user"
        }
      },
      "getPendingRewards(address)": {
        "params": {
          "_userAddress": "address of the user"
        }
      },
      "getTotalStaked()": {
        "details": "Calls the balanceOf ERC20 function to return the total staked DAI tokens on this contract "
      },
      "withdraw(uint256)": {
        "details": "Will revert if the contract ETH balance is not sufficient to fullfill the withdrawal",
        "params": {
          "_amount": "uint - Number of wei to withdraw"
        }
      }
    },
    "title": "Staking contract for ETH",
    "version": 1
  },
  "userdoc": {
    "kind": "user",
    "methods": {
      "deposit()": {
        "notice": "Allow user to stake an amount of ETH and to add this amount to their balance."
      },
      "getBalance(address)": {
        "notice": "Return the provided address balance"
      },
      "getPendingRewards(address)": {
        "notice": "Return a user pending reward balance"
      },
      "getTotalStaked()": {
        "notice": "Return the total staked DAI tokens "
      },
      "withdraw(uint256)": {
        "notice": "Allow user to unstake an amount of ETH from their account if balance is sufficient. There is a timelock on deposit of 2 days."
      }
    },
    "notice": "This contract is used to stake ETH through the Family-Staking app",
    "version": 1
  }
}