{
  "contractName": "ETHStack",
  "abi": [
    {
      "anonymous": false,
      "inputs": [
        {
          "indexed": false,
          "internalType": "address",
          "name": "userAddress",
          "type": "address"
        },
        {
          "indexed": false,
          "internalType": "uint256",
          "name": "amount",
          "type": "uint256"
        }
      ],
      "name": "StackRegistered",
      "type": "event"
    },
    {
      "anonymous": false,
      "inputs": [
        {
          "indexed": false,
          "internalType": "address",
          "name": "userAddress",
          "type": "address"
        },
        {
          "indexed": false,
          "internalType": "uint256",
          "name": "amount",
          "type": "uint256"
        }
      ],
      "name": "UnstackRegistered",
      "type": "event"
    },
    {
      "stateMutability": "payable",
      "type": "receive",
      "payable": true
    },
    {
      "inputs": [
        {
          "internalType": "address",
          "name": "_userAddress",
          "type": "address"
        }
      ],
      "name": "getBalance",
      "outputs": [
        {
          "internalType": "uint256",
          "name": "",
          "type": "uint256"
        }
      ],
      "stateMutability": "view",
      "type": "function",
      "constant": true
    },
    {
      "inputs": [],
      "name": "stack",
      "outputs": [],
      "stateMutability": "payable",
      "type": "function",
      "payable": true
    },
    {
      "inputs": [
        {
          "internalType": "uint256",
          "name": "_amount",
          "type": "uint256"
        }
      ],
      "name": "unstack",
      "outputs": [],
      "stateMutability": "nonpayable",
      "type": "function"
    }
  ],
  "bytecode": "0x608060405234801561001057600080fd5b506106d6806100206000396000f3fe6080604052600436106100385760003560e01c8063138ef1511461004c578063200061df14610056578063f8b2cb4f1461007f57610047565b36610047576100456100bc565b005b600080fd5b610054610189565b005b34801561006257600080fd5b5061007d600480360381019061007891906103be565b610193565b005b34801561008b57600080fd5b506100a660048036038101906100a19190610449565b61033b565b6040516100b39190610485565b60405180910390f35b60008060003373ffffffffffffffffffffffffffffffffffffffff1673ffffffffffffffffffffffffffffffffffffffff168152602001908152602001600020549050348161010b91906104cf565b6000803373ffffffffffffffffffffffffffffffffffffffff1673ffffffffffffffffffffffffffffffffffffffff168152602001908152602001600020819055507f6b9683daf8bde483af1ab12ad28bc33d0dc4bb3c563e18f3e1331bfd57159a45333460405161017e929190610534565b60405180910390a150565b6101916100bc565b565b60008060003373ffffffffffffffffffffffffffffffffffffffff1673ffffffffffffffffffffffffffffffffffffffff16815260200190815260200160002054905060008103610219576040517f08c379a0000000000000000000000000000000000000000000000000000000008152600401610210906105ba565b60405180910390fd5b8181101561025c576040517f08c379a00000000000000000000000000000000000000000000000000000000081526004016102539061064c565b60405180910390fd5b8147101561026957600080fd5b8181610275919061066c565b6000803373ffffffffffffffffffffffffffffffffffffffff1673ffffffffffffffffffffffffffffffffffffffff168152602001908152602001600020819055507f390b9983af1823e39dbcff612a0af992573e5ac24cd877633490bead471755b033836040516102e8929190610534565b60405180910390a13373ffffffffffffffffffffffffffffffffffffffff166108fc839081150290604051600060405180830381858888f19350505050158015610336573d6000803e3d6000fd5b505050565b60008060008373ffffffffffffffffffffffffffffffffffffffff1673ffffffffffffffffffffffffffffffffffffffff168152602001908152602001600020549050919050565b600080fd5b6000819050919050565b61039b81610388565b81146103a657600080fd5b50565b6000813590506103b881610392565b92915050565b6000602082840312156103d4576103d3610383565b5b60006103e2848285016103a9565b91505092915050565b600073ffffffffffffffffffffffffffffffffffffffff82169050919050565b6000610416826103eb565b9050919050565b6104268161040b565b811461043157600080fd5b50565b6000813590506104438161041d565b92915050565b60006020828403121561045f5761045e610383565b5b600061046d84828501610434565b91505092915050565b61047f81610388565b82525050565b600060208201905061049a6000830184610476565b92915050565b7f4e487b7100000000000000000000000000000000000000000000000000000000600052601160045260246000fd5b60006104da82610388565b91506104e583610388565b9250827fffffffffffffffffffffffffffffffffffffffffffffffffffffffffffffffff0382111561051a576105196104a0565b5b828201905092915050565b61052e8161040b565b82525050565b60006040820190506105496000830185610525565b6105566020830184610476565b9392505050565b600082825260208201905092915050565b7f4163636f756e7420697320656d70747900000000000000000000000000000000600082015250565b60006105a460108361055d565b91506105af8261056e565b602082019050919050565b600060208201905081810360008301526105d381610597565b9050919050565b7f43616e6e6f74207769746864726177206d6f7265207468616e20796f7572206360008201527f757272656e742062616c616e6365000000000000000000000000000000000000602082015250565b6000610636602e8361055d565b9150610641826105da565b604082019050919050565b6000602082019050818103600083015261066581610629565b9050919050565b600061067782610388565b915061068283610388565b925082821015610695576106946104a0565b5b82820390509291505056fea2646970667358221220334ad382b803fb37b54e880478fabb2b3734567150b55648eb2a173f813c628764736f6c634300080f0033",
  "immutableReferences": {},
  "source": "// SPDX-License-Identifier: MIT\n\npragma solidity 0.8.15;\n\n/// @title Stacking contract for ETH\n/// @notice This contract is used to stack ETH through the Family-Stacking app\ncontract ETHStack {\n    // Variables\n    mapping(address => uint) stacks;\n\n    // Events\n    event StackRegistered(address userAddress, uint amount);\n    event UnstackRegistered(address userAddress, uint amount);\n\n    /**\n     * @dev Internal function that register the stack. Used by the stack function and the default receive function. Emits a StackRegistered event.\n     */ \n    function registerStack() internal {\n        uint userStack = stacks[msg.sender];\n        stacks[msg.sender] = userStack + msg.value;\n        emit StackRegistered(msg.sender, msg.value);\n    }\n\n    /**\n     * @notice Return the provided address balance\n     * @param _userAddress address of the user\n     */ \n    function getBalance(address _userAddress) view external returns(uint){\n        return stacks[_userAddress];\n    }\n\n    /**\n     * @notice Allow user to stack an amount of ETH and to add this amount to their balance.\n     * @dev Calls the registerStack internal function to process the user balance\n     */ \n    function stack() payable external {\n        registerStack();\n    }\n\n    /**\n     * @notice Allow user to unstack an amount of ETH from their account if balance is sufficient.\n     * @dev Will revert if the contract ETH balance is not sufficient to fullfill the withdrawal\n     * @param _amount uint - Number of wei to withdraw\n     */\n    function unstack(uint _amount) external {\n        uint userStack = stacks[msg.sender];\n\n        require(userStack != 0, \"Account is empty\");\n        require(userStack >= _amount, \"Cannot withdraw more than your current balance\");\n        require(address(this).balance >= _amount);\n\n        stacks[msg.sender] = userStack - _amount;\n\n        emit UnstackRegistered(msg.sender, _amount);\n        payable(msg.sender).transfer(_amount);\n    }\n\n    /**\n     * @notice Fallback function to receive ETH from a transfer or a send. Please note that this is not the preferred method of stacking on this contract.\n     */\n    receive() external payable{\n        registerStack();\n    }\n}",
  "sourcePath": "/home/yohann/code/Family-staking/truffle/contracts/ETHStack.sol",
  "compiler": {
    "name": "solc",
    "version": "0.8.15+commit.e14f2714.Emscripten.clang"
  },
  "schemaVersion": "3.4.8",
  "updatedAt": "2022-07-30T13:51:35.641Z",
  "networkType": "ethereum",
  "devdoc": {
    "kind": "dev",
    "methods": {
      "getBalance(address)": {
        "params": {
          "_userAddress": "address of the user"
        }
      },
      "stack()": {
        "details": "Calls the registerStack internal function to process the user balance"
      },
      "unstack(uint256)": {
        "details": "Will revert if the contract ETH balance is not sufficient to fullfill the withdrawal",
        "params": {
          "_amount": "uint - Number of wei to withdraw"
        }
      }
    },
    "title": "Stacking contract for ETH",
    "version": 1
  },
  "userdoc": {
    "kind": "user",
    "methods": {
      "getBalance(address)": {
        "notice": "Return the provided address balance"
      },
      "stack()": {
        "notice": "Allow user to stack an amount of ETH and to add this amount to their balance."
      },
      "unstack(uint256)": {
        "notice": "Allow user to unstack an amount of ETH from their account if balance is sufficient."
      }
    },
    "notice": "This contract is used to stack ETH through the Family-Stacking app",
    "version": 1
  }
}