{
  "contractName": "FamStack",
  "abi": [
    {
      "inputs": [
        {
          "internalType": "address",
          "name": "_FAM",
          "type": "address"
        }
      ],
      "stateMutability": "nonpayable",
      "type": "constructor"
    },
    {
      "anonymous": false,
      "inputs": [
        {
          "indexed": false,
          "internalType": "uint256",
          "name": "_amount",
          "type": "uint256"
        }
      ],
      "name": "StackRegistered",
      "type": "event"
    },
    {
      "anonymous": false,
      "inputs": [
        {
          "indexed": false,
          "internalType": "uint256",
          "name": "_amount",
          "type": "uint256"
        }
      ],
      "name": "WithdrawRegistered",
      "type": "event"
    },
    {
      "inputs": [],
      "name": "end",
      "outputs": [
        {
          "internalType": "uint256",
          "name": "",
          "type": "uint256"
        }
      ],
      "stateMutability": "view",
      "type": "function"
    },
    {
      "inputs": [],
      "name": "reward",
      "outputs": [
        {
          "internalType": "uint256",
          "name": "",
          "type": "uint256"
        }
      ],
      "stateMutability": "view",
      "type": "function"
    },
    {
      "inputs": [
        {
          "internalType": "address",
          "name": "",
          "type": "address"
        }
      ],
      "name": "rewardClaimed",
      "outputs": [
        {
          "internalType": "bool",
          "name": "",
          "type": "bool"
        }
      ],
      "stateMutability": "view",
      "type": "function"
    },
    {
      "inputs": [],
      "name": "start",
      "outputs": [
        {
          "internalType": "uint256",
          "name": "",
          "type": "uint256"
        }
      ],
      "stateMutability": "view",
      "type": "function"
    },
    {
      "inputs": [],
      "name": "totalStacked",
      "outputs": [
        {
          "internalType": "uint256",
          "name": "",
          "type": "uint256"
        }
      ],
      "stateMutability": "view",
      "type": "function"
    },
    {
      "inputs": [],
      "name": "balance",
      "outputs": [
        {
          "internalType": "uint256",
          "name": "",
          "type": "uint256"
        }
      ],
      "stateMutability": "view",
      "type": "function"
    },
    {
      "inputs": [
        {
          "internalType": "uint256",
          "name": "_amount",
          "type": "uint256"
        }
      ],
      "name": "deposit",
      "outputs": [],
      "stateMutability": "payable",
      "type": "function"
    },
    {
      "inputs": [],
      "name": "depositAll",
      "outputs": [],
      "stateMutability": "payable",
      "type": "function"
    },
    {
      "inputs": [
        {
          "internalType": "uint256",
          "name": "_amount",
          "type": "uint256"
        }
      ],
      "name": "withdraw",
      "outputs": [],
      "stateMutability": "nonpayable",
      "type": "function"
    },
    {
      "inputs": [],
      "name": "withdrawAll",
      "outputs": [],
      "stateMutability": "nonpayable",
      "type": "function"
    }
  ],
  "bytecode": "0x60806040523480156200001157600080fd5b5060405162000d5d38038062000d5d833981810160405281019062000037919062000106565b806000806101000a81548173ffffffffffffffffffffffffffffffffffffffff021916908373ffffffffffffffffffffffffffffffffffffffff160217905550426002819055506202a300426200008f919062000171565b60038190555050620001ce565b600080fd5b600073ffffffffffffffffffffffffffffffffffffffff82169050919050565b6000620000ce82620000a1565b9050919050565b620000e081620000c1565b8114620000ec57600080fd5b50565b6000815190506200010081620000d5565b92915050565b6000602082840312156200011f576200011e6200009c565b5b60006200012f84828501620000ef565b91505092915050565b6000819050919050565b7f4e487b7100000000000000000000000000000000000000000000000000000000600052601160045260246000fd5b60006200017e8262000138565b91506200018b8362000138565b9250827fffffffffffffffffffffffffffffffffffffffffffffffffffffffffffffffff03821115620001c357620001c262000142565b5b828201905092915050565b610b7f80620001de6000396000f3fe6080604052600436106100915760003560e01c8063b69ef8a811610059578063b69ef8a814610169578063b6b55f2514610194578063be9a6555146101b0578063de5f6268146101db578063efbe1c1c146101e557610091565b8063228cb7331461009657806329e19704146100c157806329eae70d146100fe5780632e1a7d4d14610129578063853828b614610152575b600080fd5b3480156100a257600080fd5b506100ab610210565b6040516100b89190610729565b60405180910390f35b3480156100cd57600080fd5b506100e860048036038101906100e391906107a7565b610216565b6040516100f591906107ef565b60405180910390f35b34801561010a57600080fd5b50610113610236565b6040516101209190610729565b60405180910390f35b34801561013557600080fd5b50610150600480360381019061014b9190610836565b61023c565b005b34801561015e57600080fd5b5061016761035a565b005b34801561017557600080fd5b5061017e6104a0565b60405161018b9190610729565b60405180910390f35b6101ae60048036038101906101a99190610836565b610542565b005b3480156101bc57600080fd5b506101c5610660565b6040516101d29190610729565b60405180910390f35b6101e3610666565b005b3480156101f157600080fd5b506101fa61070a565b6040516102079190610729565b60405180910390f35b60055481565b60016020528060005260406000206000915054906101000a900460ff1681565b60045481565b600354421015610281576040517f08c379a0000000000000000000000000000000000000000000000000000000008152600401610278906108c0565b60405180910390fd5b60008054906101000a900473ffffffffffffffffffffffffffffffffffffffff1673ffffffffffffffffffffffffffffffffffffffff1663a9059cbb33836040518363ffffffff1660e01b81526004016102dc9291906108ef565b6020604051808303816000875af11580156102fb573d6000803e3d6000fd5b505050506040513d601f19601f8201168201806040525081019061031f9190610944565b507f6d29399438856e03bfcb72bedb6135dad69ebfe5d2ea57f7adc0adf21955d1e98160405161034f9190610729565b60405180910390a150565b60001515600160003373ffffffffffffffffffffffffffffffffffffffff1673ffffffffffffffffffffffffffffffffffffffff16815260200190815260200160002060009054906101000a900460ff161515146103ed576040517f08c379a00000000000000000000000000000000000000000000000000000000081526004016103e4906109bd565b60405180910390fd5b60006103f76104a0565b11610437576040517f08c379a000000000000000000000000000000000000000000000000000000000815260040161042e90610a29565b60405180910390fd5b6104476104426104a0565b61023c565b60018060003373ffffffffffffffffffffffffffffffffffffffff1673ffffffffffffffffffffffffffffffffffffffff16815260200190815260200160002060006101000a81548160ff021916908315150217905550565b60008060009054906101000a900473ffffffffffffffffffffffffffffffffffffffff1673ffffffffffffffffffffffffffffffffffffffff166370a08231306040518263ffffffff1660e01b81526004016104fc9190610a49565b602060405180830381865afa158015610519573d6000803e3d6000fd5b505050506040513d601f19601f8201168201806040525081019061053d9190610a79565b905090565b60008111610585576040517f08c379a000000000000000000000000000000000000000000000000000000000815260040161057c90610af2565b60405180910390fd5b60008054906101000a900473ffffffffffffffffffffffffffffffffffffffff1673ffffffffffffffffffffffffffffffffffffffff166323b872dd3330846040518463ffffffff1660e01b81526004016105e293929190610b12565b6020604051808303816000875af1158015610601573d6000803e3d6000fd5b505050506040513d601f19601f820116820180604052508101906106259190610944565b507f62f5eeaf818ce50a6fe4b127b3b34d8e2576eef602ec0ad27d3dbcf4d6fbbedb816040516106559190610729565b60405180910390a150565b60025481565b61070860008054906101000a900473ffffffffffffffffffffffffffffffffffffffff1673ffffffffffffffffffffffffffffffffffffffff166370a08231336040518263ffffffff1660e01b81526004016106c29190610a49565b602060405180830381865afa1580156106df573d6000803e3d6000fd5b505050506040513d601f19601f820116820180604052508101906107039190610a79565b610542565b565b60035481565b6000819050919050565b61072381610710565b82525050565b600060208201905061073e600083018461071a565b92915050565b600080fd5b600073ffffffffffffffffffffffffffffffffffffffff82169050919050565b600061077482610749565b9050919050565b61078481610769565b811461078f57600080fd5b50565b6000813590506107a18161077b565b92915050565b6000602082840312156107bd576107bc610744565b5b60006107cb84828501610792565b91505092915050565b60008115159050919050565b6107e9816107d4565b82525050565b600060208201905061080460008301846107e0565b92915050565b61081381610710565b811461081e57600080fd5b50565b6000813590506108308161080a565b92915050565b60006020828403121561084c5761084b610744565b5b600061085a84828501610821565b91505092915050565b600082825260208201905092915050565b7f746f6f206561726c790000000000000000000000000000000000000000000000600082015250565b60006108aa600983610863565b91506108b582610874565b602082019050919050565b600060208201905081810360008301526108d98161089d565b9050919050565b6108e981610769565b82525050565b600060408201905061090460008301856108e0565b610911602083018461071a565b9392505050565b610921816107d4565b811461092c57600080fd5b50565b60008151905061093e81610918565b92915050565b60006020828403121561095a57610959610744565b5b60006109688482850161092f565b91505092915050565b7f796f7520616c726561647920726563656976656420796f757220726577617264600082015250565b60006109a7602083610863565b91506109b282610971565b602082019050919050565b600060208201905081810360008301526109d68161099a565b9050919050565b7f6e6f74206120737461636b657200000000000000000000000000000000000000600082015250565b6000610a13600d83610863565b9150610a1e826109dd565b602082019050919050565b60006020820190508181036000830152610a4281610a06565b9050919050565b6000602082019050610a5e60008301846108e0565b92915050565b600081519050610a738161080a565b92915050565b600060208284031215610a8f57610a8e610744565b5b6000610a9d84828501610a64565b91505092915050565b7f416d6f756e742063616e6e6f7420626520300000000000000000000000000000600082015250565b6000610adc601283610863565b9150610ae782610aa6565b602082019050919050565b60006020820190508181036000830152610b0b81610acf565b9050919050565b6000606082019050610b2760008301866108e0565b610b3460208301856108e0565b610b41604083018461071a565b94935050505056fea2646970667358221220ede64074e679bdb9adf9c06d2a5ee0e6954f64defee9d58484a81a79df3db8d464736f6c634300080f0033",
  "immutableReferences": {},
  "source": "// SPDX-License-Identifier: MIT\n\npragma solidity 0.8.15;\n\n\nimport \"../node_modules/@openzeppelin/contracts/token/ERC20/ERC20.sol\";\nimport \"../node_modules/@openzeppelin/contracts/token/ERC20/IERC20.sol\";\nimport \"./FAM.sol\";\n\n\n/**\n@title Family token contract by Maud Hutchinson\n@dev This contractt is stacking FAM token\n */\n\ncontract FamStack {\n\n    /// variables\n\n    IERC20 fam;\n    mapping (address => bool) public rewardClaimed;\n    uint  public start;\n    uint public end;\n    uint public totalStacked;\n    uint public reward;\n\n    /// Events\n   \n    event StackRegistered( uint _amount);\n    event WithdrawRegistered ( uint _amount);\n\n    /// Constructor\n\n    constructor (address _FAM) {\n        fam = IERC20(_FAM);\n        start = block.timestamp;\n        end = block.timestamp + 2 days;\n    }\n\n        function balance() public view returns (uint256) {\n        return fam.balanceOf(address(this));\n    }\n\n    /**\n    @dev create a pool and calculate the reward for the stacker\n     */\n    \n    function deposit(uint256 _amount) public payable {\n        require(_amount > 0, \"Amount cannot be 0\");\n        fam.transferFrom(msg.sender, address(this), _amount);\n        emit StackRegistered( _amount);\n    }\n\n     /**\n    @dev allow to deposit all assets\n     */\n\n\n    function depositAll() public payable {\n        deposit(\n            fam.balanceOf(msg.sender)\n        );\n    }\n\n     /**\n    @dev allow the stacker to withdraw some stacked money \n    @notice require time to be minimun two days after the stack\n     */\n\n\n    function withdraw( uint256 _amount) public {\n        require(block.timestamp >= end, 'too early');\n        fam.transfer(msg.sender, _amount);\n        emit WithdrawRegistered (  _amount);\n    }\n\n    /**\n    @dev allow the stacker to withdraw  all stacked money\n    @notice depends of fonction withdraw conditions\n     */\n\n\n    function withdrawAll() public {\n        require(rewardClaimed[msg.sender] == false, 'you already received your reward');\n        require(balance() > 0 , 'not a stacker');\n        withdraw(balance());\n        rewardClaimed [msg.sender] = true;\n    }\n\n}",
  "sourcePath": "/home/yohann/code/Family-staking/truffle/contracts/FamStack.sol",
  "compiler": {
    "name": "solc",
    "version": "0.8.15+commit.e14f2714.Emscripten.clang"
  },
  "schemaVersion": "3.4.8",
  "updatedAt": "2022-08-05T21:17:31.012Z",
  "devdoc": {
    "details": "This contractt is stacking FAM token",
    "kind": "dev",
    "methods": {
      "deposit(uint256)": {
        "details": "create a pool and calculate the reward for the stacker"
      },
      "depositAll()": {
        "details": "allow to deposit all assets"
      },
      "withdraw(uint256)": {
        "details": "allow the stacker to withdraw some stacked money "
      },
      "withdrawAll()": {
        "details": "allow the stacker to withdraw  all stacked money"
      }
    },
    "title": "Family token contract by Maud Hutchinson",
    "version": 1
  },
  "userdoc": {
    "events": {
      "StackRegistered(uint256)": {
        "notice": "Events"
      }
    },
    "kind": "user",
    "methods": {
      "constructor": {
        "notice": "Constructor"
      },
      "withdraw(uint256)": {
        "notice": "require time to be minimun two days after the stack"
      },
      "withdrawAll()": {
        "notice": "depends of fonction withdraw conditions"
      }
    },
    "version": 1
  }
}