{
  "contractName": "Chainlink",
  "abi": [
    {
      "inputs": [],
      "stateMutability": "nonpayable",
      "type": "constructor"
    },
    {
      "inputs": [],
      "name": "getLatestPrice",
      "outputs": [
        {
          "internalType": "int256",
          "name": "",
          "type": "int256"
        }
      ],
      "stateMutability": "view",
      "type": "function"
    }
  ],
  "bytecode": "0x608060405234801561001057600080fd5b50738993ed705cdf5e84d0a3b754b5ee0e1783fcdf166000806101000a81548173ffffffffffffffffffffffffffffffffffffffff021916908373ffffffffffffffffffffffffffffffffffffffff16021790555061027b806100746000396000f3fe608060405234801561001057600080fd5b506004361061002b5760003560e01c80638e15f47314610030575b600080fd5b61003861004e565b6040516100459190610106565b60405180910390f35b60008060008054906101000a900473ffffffffffffffffffffffffffffffffffffffff1673ffffffffffffffffffffffffffffffffffffffff1663feaf968c6040518163ffffffff1660e01b815260040160a060405180830381865afa1580156100bc573d6000803e3d6000fd5b505050506040513d601f19601f820116820180604052508101906100e091906101ca565b5050509150508091505090565b6000819050919050565b610100816100ed565b82525050565b600060208201905061011b60008301846100f7565b92915050565b600080fd5b600069ffffffffffffffffffff82169050919050565b61014581610126565b811461015057600080fd5b50565b6000815190506101628161013c565b92915050565b610171816100ed565b811461017c57600080fd5b50565b60008151905061018e81610168565b92915050565b6000819050919050565b6101a781610194565b81146101b257600080fd5b50565b6000815190506101c48161019e565b92915050565b600080600080600060a086880312156101e6576101e5610121565b5b60006101f488828901610153565b95505060206102058882890161017f565b9450506040610216888289016101b5565b9350506060610227888289016101b5565b925050608061023888828901610153565b915050929550929590935056fea2646970667358221220252856034e281b5b2fc25f436c293f698c06e8f601fb49eb3fc687a01eb8a1aa64736f6c634300080f0033",
  "immutableReferences": {},
  "source": "// SPDX-License-Identifier: MIT\npragma solidity 0.8.15; \n\nimport \"../node_modules/@chainlink/contracts/src/v0.8/interfaces/AggregatorV3Interface.sol\"; \n\ncontract Chainlink {     \n\n    AggregatorV3Interface internal priceFeed;     \n\n    /** * Network: Kovan \n\n    * Aggregator: BN/USD \n\n    * Address: 0x8993ED705cdf5e84D0a3B754b5Ee0e1783fcdF16 */     \n\n    constructor() { \n\n        priceFeed = AggregatorV3Interface(0x8993ED705cdf5e84D0a3B754b5Ee0e1783fcdF16 ); \n\n    }     /** * Returns the latest price */     \n\n    function getLatestPrice() public view returns (int) {  \n\n        ( /*uint80 roundID*/, int price, /*uint startedAt*/,  /*uint timeStamp*/, /*uint80 answeredInRound*/ )         \n\n        = priceFeed.latestRoundData();                 \n\n        return price;             \n\n        }    \n\n}",
  "sourcePath": "/home/yohann/code/Family-staking/truffle/contracts/Chainlink.sol",
  "compiler": {
    "name": "solc",
    "version": "0.8.15+commit.e14f2714.Emscripten.clang"
  },
  "schemaVersion": "3.4.8",
  "updatedAt": "2022-08-05T21:17:30.969Z",
  "devdoc": {
    "kind": "dev",
    "methods": {},
    "version": 1
  },
  "userdoc": {
    "kind": "user",
    "methods": {
      "constructor": {
        "notice": "* Network: Kovan  Aggregator: BN/USD  Address: 0x8993ED705cdf5e84D0a3B754b5Ee0e1783fcdF16 "
      },
      "getLatestPrice()": {
        "notice": "* Returns the latest price "
      }
    },
    "version": 1
  }
}