{
  "contractName": "DAIStake",
  "abi": [
    {
      "inputs": [
        {
          "internalType": "address",
          "name": "_DAI",
          "type": "address"
        },
        {
          "internalType": "address",
          "name": "_FAM",
          "type": "address"
        }
      ],
      "stateMutability": "nonpayable",
      "type": "constructor"
    },
    {
      "anonymous": false,
      "inputs": [
        {
          "indexed": false,
          "internalType": "address",
          "name": "userAddress",
          "type": "address"
        },
        {
          "indexed": false,
          "internalType": "uint256",
          "name": "amount",
          "type": "uint256"
        }
      ],
      "name": "DepositRegistered",
      "type": "event"
    },
    {
      "anonymous": false,
      "inputs": [
        {
          "indexed": false,
          "internalType": "address",
          "name": "userAddress",
          "type": "address"
        },
        {
          "indexed": false,
          "internalType": "uint256",
          "name": "amount",
          "type": "uint256"
        }
      ],
      "name": "UpdatedRewards",
      "type": "event"
    },
    {
      "anonymous": false,
      "inputs": [
        {
          "indexed": false,
          "internalType": "address",
          "name": "userAddress",
          "type": "address"
        },
        {
          "indexed": false,
          "internalType": "uint256",
          "name": "amount",
          "type": "uint256"
        }
      ],
      "name": "WithdrawRegistered",
      "type": "event"
    },
    {
      "inputs": [
        {
          "internalType": "address",
          "name": "_userAddress",
          "type": "address"
        }
      ],
      "name": "getStakedBalance",
      "outputs": [
        {
          "internalType": "uint256",
          "name": "",
          "type": "uint256"
        }
      ],
      "stateMutability": "view",
      "type": "function",
      "constant": true
    },
    {
      "inputs": [],
      "name": "getTotalStaked",
      "outputs": [
        {
          "internalType": "uint256",
          "name": "",
          "type": "uint256"
        }
      ],
      "stateMutability": "view",
      "type": "function",
      "constant": true
    },
    {
      "inputs": [
        {
          "internalType": "address",
          "name": "_userAddress",
          "type": "address"
        }
      ],
      "name": "getPendingRewards",
      "outputs": [
        {
          "internalType": "uint256",
          "name": "",
          "type": "uint256"
        }
      ],
      "stateMutability": "view",
      "type": "function",
      "constant": true
    },
    {
      "inputs": [
        {
          "internalType": "uint256",
          "name": "_amount",
          "type": "uint256"
        }
      ],
      "name": "deposit",
      "outputs": [],
      "stateMutability": "payable",
      "type": "function",
      "payable": true
    },
    {
      "inputs": [
        {
          "internalType": "uint256",
          "name": "_amount",
          "type": "uint256"
        }
      ],
      "name": "withdraw",
      "outputs": [],
      "stateMutability": "nonpayable",
      "type": "function"
    }
  ],
  "bytecode": "0x6080604052662386f26fc100006004553480156200001c57600080fd5b50604051620013fd380380620013fd833981810160405281019062000042919062000135565b816000806101000a81548173ffffffffffffffffffffffffffffffffffffffff021916908373ffffffffffffffffffffffffffffffffffffffff16021790555080600160006101000a81548173ffffffffffffffffffffffffffffffffffffffff021916908373ffffffffffffffffffffffffffffffffffffffff16021790555050506200017c565b600080fd5b600073ffffffffffffffffffffffffffffffffffffffff82169050919050565b6000620000fd82620000d0565b9050919050565b6200010f81620000f0565b81146200011b57600080fd5b50565b6000815190506200012f8162000104565b92915050565b600080604083850312156200014f576200014e620000cb565b5b60006200015f858286016200011e565b925050602062000172858286016200011e565b9150509250929050565b611271806200018c6000396000f3fe60806040526004361061004a5760003560e01c80630917e7761461004f5780632e1a7d4d1461007a5780633a02a42d146100a3578063b6b55f25146100e0578063f6ed2017146100fc575b600080fd5b34801561005b57600080fd5b50610064610139565b6040516100719190610bd4565b60405180910390f35b34801561008657600080fd5b506100a1600480360381019061009c9190610c20565b6101db565b005b3480156100af57600080fd5b506100ca60048036038101906100c59190610cab565b610675565b6040516100d79190610bd4565b60405180910390f35b6100fa60048036038101906100f59190610c20565b6106c1565b005b34801561010857600080fd5b50610123600480360381019061011e9190610cab565b6106cd565b6040516101309190610bd4565b60405180910390f35b60008060009054906101000a900473ffffffffffffffffffffffffffffffffffffffff1673ffffffffffffffffffffffffffffffffffffffff166370a08231306040518263ffffffff1660e01b81526004016101959190610ce7565b602060405180830381865afa1580156101b2573d6000803e3d6000fd5b505050506040513d601f19601f820116820180604052508101906101d69190610d17565b905090565b6000600260003373ffffffffffffffffffffffffffffffffffffffff1673ffffffffffffffffffffffffffffffffffffffff16815260200190815260200160002060000154905060008103610265576040517f08c379a000000000000000000000000000000000000000000000000000000000815260040161025c90610da1565b60405180910390fd5b818110156102a8576040517f08c379a000000000000000000000000000000000000000000000000000000000815260040161029f90610e33565b60405180910390fd5b8160008054906101000a900473ffffffffffffffffffffffffffffffffffffffff1673ffffffffffffffffffffffffffffffffffffffff166370a08231306040518263ffffffff1660e01b81526004016103029190610ce7565b602060405180830381865afa15801561031f573d6000803e3d6000fd5b505050506040513d601f19601f820116820180604052508101906103439190610d17565b1015610384576040517f08c379a000000000000000000000000000000000000000000000000000000000815260040161037b90610e9f565b60405180910390fd5b6000600260003373ffffffffffffffffffffffffffffffffffffffff1673ffffffffffffffffffffffffffffffffffffffff16815260200190815260200160002060010154905060006202a300826103dc9190610eee565b905080421015610421576040517f08c379a000000000000000000000000000000000000000000000000000000000815260040161041890610f90565b60405180910390fd5b838361042d9190610fb0565b600260003373ffffffffffffffffffffffffffffffffffffffff1673ffffffffffffffffffffffffffffffffffffffff1681526020019081526020016000206000018190555061047e838333610716565b6000600360003373ffffffffffffffffffffffffffffffffffffffff1673ffffffffffffffffffffffffffffffffffffffff1681526020019081526020016000205490506000600360003373ffffffffffffffffffffffffffffffffffffffff1673ffffffffffffffffffffffffffffffffffffffff16815260200190815260200160002081905550600160009054906101000a900473ffffffffffffffffffffffffffffffffffffffff1673ffffffffffffffffffffffffffffffffffffffff16637b56c2b233836040518363ffffffff1660e01b8152600401610564929190610fe4565b600060405180830381600087803b15801561057e57600080fd5b505af1158015610592573d6000803e3d6000fd5b5050505060008054906101000a900473ffffffffffffffffffffffffffffffffffffffff1673ffffffffffffffffffffffffffffffffffffffff1663a9059cbb33876040518363ffffffff1660e01b81526004016105f1929190610fe4565b6020604051808303816000875af1158015610610573d6000803e3d6000fd5b505050506040513d601f19601f820116820180604052508101906106349190611045565b507f59945647ef1c847843ee61b123cb5a2b68b6f77f1466683a5c6b7ecd4a8a1cc83386604051610666929190610fe4565b60405180910390a15050505050565b6000600260008373ffffffffffffffffffffffffffffffffffffffff1673ffffffffffffffffffffffffffffffffffffffff168152602001908152602001600020600001549050919050565b6106ca81610855565b50565b6000600360008373ffffffffffffffffffffffffffffffffffffffff1673ffffffffffffffffffffffffffffffffffffffff168152602001908152602001600020549050919050565b60006018603c8085426107299190610fb0565b61073391906110a1565b61073d91906110a1565b61074791906110a1565b905060006768155a43676e000090506000685150ae84a8cdf000009050600082670de0b6b3a7640000612710670de0b6b3a76400008a8661078891906110d2565b61079291906110a1565b61079c91906110a1565b866107a791906110d2565b6107b191906110d2565b6107bb91906110a1565b905080600360008773ffffffffffffffffffffffffffffffffffffffff1673ffffffffffffffffffffffffffffffffffffffff168152602001908152602001600020600082825461080c9190610eee565b925050819055507ff28ead80696c20d8f2c4b30fe0abc00926c4923c4390de2cdabb35f61074fd6d8582604051610844929190610fe4565b60405180910390a150505050505050565b600073ffffffffffffffffffffffffffffffffffffffff163373ffffffffffffffffffffffffffffffffffffffff16036108c4576040517f08c379a00000000000000000000000000000000000000000000000000000000081526004016108bb90611178565b60405180910390fd5b8060008054906101000a900473ffffffffffffffffffffffffffffffffffffffff1673ffffffffffffffffffffffffffffffffffffffff166370a08231336040518263ffffffff1660e01b815260040161091e9190610ce7565b602060405180830381865afa15801561093b573d6000803e3d6000fd5b505050506040513d601f19601f8201168201806040525081019061095f9190610d17565b10156109a0576040517f08c379a0000000000000000000000000000000000000000000000000000000008152600401610997906111e4565b60405180910390fd5b60008054906101000a900473ffffffffffffffffffffffffffffffffffffffff1673ffffffffffffffffffffffffffffffffffffffff166323b872dd3330846040518463ffffffff1660e01b81526004016109fd93929190611204565b6020604051808303816000875af1158015610a1c573d6000803e3d6000fd5b505050506040513d601f19601f82011682018060405250810190610a409190611045565b506000600260003373ffffffffffffffffffffffffffffffffffffffff1673ffffffffffffffffffffffffffffffffffffffff1681526020019081526020016000206000015490506000600260003373ffffffffffffffffffffffffffffffffffffffff1673ffffffffffffffffffffffffffffffffffffffff1681526020019081526020016000206001015490508282610adb9190610eee565b600260003373ffffffffffffffffffffffffffffffffffffffff1673ffffffffffffffffffffffffffffffffffffffff1681526020019081526020016000206000018190555042600260003373ffffffffffffffffffffffffffffffffffffffff1673ffffffffffffffffffffffffffffffffffffffff168152602001908152602001600020600101819055506000821115610b7d57610b7c828233610716565b5b7fe865f22f57d0ae46c9f05f6677e4138264cb541aeb2c4bc8c82e7a9b3dd4905a3384604051610bae929190610fe4565b60405180910390a1505050565b6000819050919050565b610bce81610bbb565b82525050565b6000602082019050610be96000830184610bc5565b92915050565b600080fd5b610bfd81610bbb565b8114610c0857600080fd5b50565b600081359050610c1a81610bf4565b92915050565b600060208284031215610c3657610c35610bef565b5b6000610c4484828501610c0b565b91505092915050565b600073ffffffffffffffffffffffffffffffffffffffff82169050919050565b6000610c7882610c4d565b9050919050565b610c8881610c6d565b8114610c9357600080fd5b50565b600081359050610ca581610c7f565b92915050565b600060208284031215610cc157610cc0610bef565b5b6000610ccf84828501610c96565b91505092915050565b610ce181610c6d565b82525050565b6000602082019050610cfc6000830184610cd8565b92915050565b600081519050610d1181610bf4565b92915050565b600060208284031215610d2d57610d2c610bef565b5b6000610d3b84828501610d02565b91505092915050565b600082825260208201905092915050565b7f4163636f756e7420697320656d70747900000000000000000000000000000000600082015250565b6000610d8b601083610d44565b9150610d9682610d55565b602082019050919050565b60006020820190508181036000830152610dba81610d7e565b9050919050565b7f43616e6e6f74207769746864726177206d6f7265207468616e20796f7572206360008201527f757272656e742062616c616e6365000000000000000000000000000000000000602082015250565b6000610e1d602e83610d44565b9150610e2882610dc1565b604082019050919050565b60006020820190508181036000830152610e4c81610e10565b9050919050565b7f4e6f7420656e6f756768206c6971756964697479000000000000000000000000600082015250565b6000610e89601483610d44565b9150610e9482610e53565b602082019050919050565b60006020820190508181036000830152610eb881610e7c565b9050919050565b7f4e487b7100000000000000000000000000000000000000000000000000000000600052601160045260246000fd5b6000610ef982610bbb565b9150610f0483610bbb565b9250827fffffffffffffffffffffffffffffffffffffffffffffffffffffffffffffffff03821115610f3957610f38610ebf565b5b828201905092915050565b7f4465706f7369742069732074696d65206c6f636b656400000000000000000000600082015250565b6000610f7a601683610d44565b9150610f8582610f44565b602082019050919050565b60006020820190508181036000830152610fa981610f6d565b9050919050565b6000610fbb82610bbb565b9150610fc683610bbb565b925082821015610fd957610fd8610ebf565b5b828203905092915050565b6000604082019050610ff96000830185610cd8565b6110066020830184610bc5565b9392505050565b60008115159050919050565b6110228161100d565b811461102d57600080fd5b50565b60008151905061103f81611019565b92915050565b60006020828403121561105b5761105a610bef565b5b600061106984828501611030565b91505092915050565b7f4e487b7100000000000000000000000000000000000000000000000000000000600052601260045260246000fd5b60006110ac82610bbb565b91506110b783610bbb565b9250826110c7576110c6611072565b5b828204905092915050565b60006110dd82610bbb565b91506110e883610bbb565b9250817fffffffffffffffffffffffffffffffffffffffffffffffffffffffffffffffff048311821515161561112157611120610ebf565b5b828202905092915050565b7f416464726573732063616e206e6f74206265206e756c6c000000000000000000600082015250565b6000611162601783610d44565b915061116d8261112c565b602082019050919050565b6000602082019050818103600083015261119181611155565b9050919050565b7f496e73756666696369656e742062616c616e6365000000000000000000000000600082015250565b60006111ce601483610d44565b91506111d982611198565b602082019050919050565b600060208201905081810360008301526111fd816111c1565b9050919050565b60006060820190506112196000830186610cd8565b6112266020830185610cd8565b6112336040830184610bc5565b94935050505056fea26469706673582212206cf51a8c4361b22ca91ea6382dd21d941b570089bce39fd99013c32cdce4207664736f6c634300080f0033",
  "immutableReferences": {},
  "source": "// SPDX-License-Identifier: MIT\n\nimport \"../node_modules/@openzeppelin/contracts/token/ERC20/ERC20.sol\";\nimport \"../node_modules/@openzeppelin/contracts/token/ERC20/IERC20.sol\";\nimport \"./DAI.sol\";\nimport \"./FAM.sol\";\n\npragma solidity 0.8.15;\n\n/// @title Staking contract for ETH\n/// @notice This contract is used to stake ETH through the Family-Staking app\ncontract DAIStake {\n    // Variables\n    IERC20 dai;\n    FAM private FAMInstance;\n    mapping(address => Stake) stakes;\n    mapping(address => uint) pendingRewards;\n    uint minDeposit = 10000000000000000;\n\n    struct Stake {\n        uint amount;\n        uint depositDate;\n    }   \n\n    // Events\n    event DepositRegistered(address userAddress, uint amount);\n    event WithdrawRegistered(address userAddress, uint amount);\n    event UpdatedRewards(address userAddress, uint amount);\n\n    /**\n     * @dev Can pass the DAI token's address from the kovan network : 0x4F96Fe3b7A6Cf9725f59d353F723c1bDb64CA6Aa to use the ERC20 functions\n     * @param _DAI ERC20 DAI token contract address\n     * @param _FAM address of the deployed contract\n     */\n    constructor(address _DAI, address _FAM) {\n        dai = IERC20(_DAI);\n        FAMInstance = FAM(_FAM);\n    }\n\n    /**\n     * @notice Return the provided address staked token's balance\n     * @param _userAddress address of the user\n     */ \n    function getStakedBalance(address _userAddress) view external returns(uint) {\n        return stakes[_userAddress].amount;\n    }\n\n    /**\n     * @notice Return the total staked DAI tokens \n     * @dev Calls the balanceOf ERC20 function to return the total staked DAI tokens on this contract \n     */ \n    function getTotalStaked() view external returns(uint) {\n        return dai.balanceOf(address(this));\n    }\n\n    /**\n     * @notice Return a user pending reward balance\n     * @param _userAddress address of the user\n     */\n    function getPendingRewards(address _userAddress) view external returns(uint){\n        return pendingRewards[_userAddress];\n    }\n\n    /**\n     * @notice Allow user to stake an amount of DAI and to add this amount to their balance.\n     * @dev Calls the ERC20 approve function before the transferFrom to process the user balance\n     * @param _amount amount to stake\n     */ \n    function registerDeposit(uint256 _amount) internal {\n        require(msg.sender != address(0), \"Address can not be null\");\n        require(dai.balanceOf(msg.sender) >= _amount, \"Insufficient balance\");\n\n        // Transfer tokens to this contract\n        dai.transferFrom(msg.sender, address(this), _amount);\n\n        uint currentStake = stakes[msg.sender].amount;\n        uint currentDepositDate = stakes[msg.sender].depositDate;\n        // Updating the user stake\n        stakes[msg.sender].amount = currentStake + _amount;\n        stakes[msg.sender].depositDate = block.timestamp;\n        // We need to calculate the pending reward amount and store it\n        if(currentStake > 0) {\n            updatePendingRewards(currentStake, currentDepositDate, msg.sender);\n        }   \n\n        emit DepositRegistered(msg.sender, _amount);\n    }\n\n    /**\n     * @notice Updates the pending rewards balance of the user\n     * @dev never called from outside of the contract\n     * @param _stakes stake balance of the user\n     * @param _from uint date of last deposit / to calcul from\n     * @param _userAddress address of the user\n     */\n    function updatePendingRewards(uint _stakes, uint _from, address _userAddress) internal{\n        // calculating nbDay since deposit\n        uint nbDay = (block.timestamp - _from) / 60 / 60 / 24;\n        uint FAMValue = 7500000000000000000; // Converted to WEI\n        uint ETHValue = 1500000000000000000000; // DummyValue\n        // FAMValue / (NbJour * (0,01% * ((ETHValue * _stakes) / 10^18)))\n        uint FAMReward = ( ( ( nbDay * ( ( ( ETHValue * _stakes ) / 1000000000000000000 ) / 10000 ) ) * 1000000000000000000 ) / FAMValue );\n        // Updating user pending balance\n        pendingRewards[_userAddress] += FAMReward;\n\n        emit UpdatedRewards(_userAddress, FAMReward);\n    }\n\n    /**\n     * @notice Allow user to stake an amount of DAI and to add this amount to their balance.\n     * @dev Calls the registerStake internal function to process the user balance\n     */ \n    function deposit(uint256 _amount) payable external {\n        registerDeposit(_amount);\n    }\n\n    /**\n     * @notice Allow user to unstake an amount of DAI from their account if balance is sufficient. There is a timelock on deposit of 2 days.\n     * @dev Will revert if the contract DAI balance is not sufficient to fullfill the withdrawal\n     * @param _amount uint - Number of wei to withdraw\n     */\n    function withdraw(uint _amount) external {\n        // verifications on the user balance\n        uint userStake = stakes[msg.sender].amount;\n        require(userStake != 0, \"Account is empty\");\n        require(userStake >= _amount, \"Cannot withdraw more than your current balance\");\n        require(dai.balanceOf(address(this)) >= _amount, \"Not enough liquidity\");\n        // Storing the current date of reference and calculating the lock release\n        uint referenceDate = stakes[msg.sender].depositDate;\n        uint timeLock = referenceDate + 2 days;\n        require(block.timestamp >= timeLock, \"Deposit is time locked\");\n\n        // Updating the user's stake\n        stakes[msg.sender].amount = userStake - _amount;\n\n        // Calculating and updating the pending rewards amount\n        updatePendingRewards(userStake, referenceDate, msg.sender);\n        uint rewardsToMint = pendingRewards[msg.sender];\n        pendingRewards[msg.sender] = 0;\n        \n        // Minting the rewards to the user using the faucet function of the FAM contract\n        FAMInstance.faucet(msg.sender, rewardsToMint);\n\n        // Transfering back the amount to the user\n        dai.transfer(msg.sender, _amount);\n        \n        // TODO Error management\n\n        emit WithdrawRegistered(msg.sender, _amount);\n    }\n}",
  "sourcePath": "/home/yohann/code/Family-staking/truffle/contracts/DAIStake.sol",
  "compiler": {
    "name": "solc",
    "version": "0.8.15+commit.e14f2714.Emscripten.clang"
  },
  "schemaVersion": "3.4.8",
  "updatedAt": "2022-08-07T21:53:06.057Z",
  "networkType": "ethereum",
  "devdoc": {
    "kind": "dev",
    "methods": {
      "constructor": {
        "details": "Can pass the DAI token's address from the kovan network : 0x4F96Fe3b7A6Cf9725f59d353F723c1bDb64CA6Aa to use the ERC20 functions",
        "params": {
          "_DAI": "ERC20 DAI token contract address",
          "_FAM": "address of the deployed contract"
        }
      },
      "deposit(uint256)": {
        "details": "Calls the registerStake internal function to process the user balance"
      },
      "getPendingRewards(address)": {
        "params": {
          "_userAddress": "address of the user"
        }
      },
      "getStakedBalance(address)": {
        "params": {
          "_userAddress": "address of the user"
        }
      },
      "getTotalStaked()": {
        "details": "Calls the balanceOf ERC20 function to return the total staked DAI tokens on this contract "
      },
      "withdraw(uint256)": {
        "details": "Will revert if the contract DAI balance is not sufficient to fullfill the withdrawal",
        "params": {
          "_amount": "uint - Number of wei to withdraw"
        }
      }
    },
    "title": "Staking contract for ETH",
    "version": 1
  },
  "userdoc": {
    "kind": "user",
    "methods": {
      "deposit(uint256)": {
        "notice": "Allow user to stake an amount of DAI and to add this amount to their balance."
      },
      "getPendingRewards(address)": {
        "notice": "Return a user pending reward balance"
      },
      "getStakedBalance(address)": {
        "notice": "Return the provided address staked token's balance"
      },
      "getTotalStaked()": {
        "notice": "Return the total staked DAI tokens "
      },
      "withdraw(uint256)": {
        "notice": "Allow user to unstake an amount of DAI from their account if balance is sufficient. There is a timelock on deposit of 2 days."
      }
    },
    "notice": "This contract is used to stake ETH through the Family-Staking app",
    "version": 1
  }
}