{
  "contractName": "FAMStake",
  "abi": [
    {
      "inputs": [
        {
          "internalType": "address",
          "name": "_FAM",
          "type": "address"
        }
      ],
      "stateMutability": "nonpayable",
      "type": "constructor"
    },
    {
      "anonymous": false,
      "inputs": [
        {
          "indexed": false,
          "internalType": "address",
          "name": "userAddress",
          "type": "address"
        },
        {
          "indexed": false,
          "internalType": "uint256",
          "name": "amount",
          "type": "uint256"
        }
      ],
      "name": "DepositRegistered",
      "type": "event"
    },
    {
      "anonymous": false,
      "inputs": [
        {
          "indexed": false,
          "internalType": "address",
          "name": "userAddress",
          "type": "address"
        },
        {
          "indexed": false,
          "internalType": "uint256",
          "name": "amount",
          "type": "uint256"
        }
      ],
      "name": "UpdatedRewards",
      "type": "event"
    },
    {
      "anonymous": false,
      "inputs": [
        {
          "indexed": false,
          "internalType": "address",
          "name": "userAddress",
          "type": "address"
        },
        {
          "indexed": false,
          "internalType": "uint256",
          "name": "amount",
          "type": "uint256"
        }
      ],
      "name": "WithdrawRegistered",
      "type": "event"
    },
    {
      "inputs": [
        {
          "internalType": "address",
          "name": "",
          "type": "address"
        }
      ],
      "name": "rewardClaimed",
      "outputs": [
        {
          "internalType": "bool",
          "name": "",
          "type": "bool"
        }
      ],
      "stateMutability": "view",
      "type": "function",
      "constant": true
    },
    {
      "inputs": [],
      "name": "totalSupply",
      "outputs": [
        {
          "internalType": "uint256",
          "name": "",
          "type": "uint256"
        }
      ],
      "stateMutability": "view",
      "type": "function",
      "constant": true
    },
    {
      "inputs": [
        {
          "internalType": "uint256",
          "name": "_amount",
          "type": "uint256"
        }
      ],
      "name": "deposit",
      "outputs": [],
      "stateMutability": "payable",
      "type": "function",
      "payable": true
    },
    {
      "inputs": [
        {
          "internalType": "address",
          "name": "_userAddress",
          "type": "address"
        }
      ],
      "name": "getBalance",
      "outputs": [
        {
          "internalType": "uint256",
          "name": "",
          "type": "uint256"
        }
      ],
      "stateMutability": "view",
      "type": "function",
      "constant": true
    },
    {
      "inputs": [],
      "name": "getTotalStaked",
      "outputs": [
        {
          "internalType": "uint256",
          "name": "",
          "type": "uint256"
        }
      ],
      "stateMutability": "view",
      "type": "function",
      "constant": true
    },
    {
      "inputs": [
        {
          "internalType": "address",
          "name": "_userAddress",
          "type": "address"
        }
      ],
      "name": "getPendingRewards",
      "outputs": [
        {
          "internalType": "uint256",
          "name": "",
          "type": "uint256"
        }
      ],
      "stateMutability": "view",
      "type": "function",
      "constant": true
    },
    {
      "inputs": [
        {
          "internalType": "uint256",
          "name": "_amount",
          "type": "uint256"
        }
      ],
      "name": "withdraw",
      "outputs": [],
      "stateMutability": "nonpayable",
      "type": "function"
    }
  ],
  "bytecode": "0x60806040523480156200001157600080fd5b5060405162001477380380620014778339818101604052810190620000379190620000e8565b806000806101000a81548173ffffffffffffffffffffffffffffffffffffffff021916908373ffffffffffffffffffffffffffffffffffffffff160217905550506200011a565b600080fd5b600073ffffffffffffffffffffffffffffffffffffffff82169050919050565b6000620000b08262000083565b9050919050565b620000c281620000a3565b8114620000ce57600080fd5b50565b600081519050620000e281620000b7565b92915050565b6000602082840312156200010157620001006200007e565b5b60006200011184828501620000d1565b91505092915050565b61134d806200012a6000396000f3fe6080604052600436106100705760003560e01c80632e1a7d4d1161004e5780632e1a7d4d14610108578063b6b55f2514610131578063f6ed20171461014d578063f8b2cb4f1461018a57610070565b80630917e7761461007557806318160ddd146100a057806329e19704146100cb575b600080fd5b34801561008157600080fd5b5061008a6101c7565b6040516100979190610c86565b60405180910390f35b3480156100ac57600080fd5b506100b5610269565b6040516100c29190610c86565b60405180910390f35b3480156100d757600080fd5b506100f260048036038101906100ed9190610d04565b61026f565b6040516100ff9190610d4c565b60405180910390f35b34801561011457600080fd5b5061012f600480360381019061012a9190610d93565b61028f565b005b61014b60048036038101906101469190610d93565b610727565b005b34801561015957600080fd5b50610174600480360381019061016f9190610d04565b610733565b6040516101819190610c86565b60405180910390f35b34801561019657600080fd5b506101b160048036038101906101ac9190610d04565b61077c565b6040516101be9190610c86565b60405180910390f35b60008060009054906101000a900473ffffffffffffffffffffffffffffffffffffffff1673ffffffffffffffffffffffffffffffffffffffff166370a08231306040518263ffffffff1660e01b81526004016102239190610dcf565b602060405180830381865afa158015610240573d6000803e3d6000fd5b505050506040513d601f19601f820116820180604052508101906102649190610dff565b905090565b60035481565b60046020528060005260406000206000915054906101000a900460ff1681565b6000600160003373ffffffffffffffffffffffffffffffffffffffff1673ffffffffffffffffffffffffffffffffffffffff16815260200190815260200160002060000154905060008103610319576040517f08c379a000000000000000000000000000000000000000000000000000000000815260040161031090610e89565b60405180910390fd5b8181101561035c576040517f08c379a000000000000000000000000000000000000000000000000000000000815260040161035390610f1b565b60405180910390fd5b8160008054906101000a900473ffffffffffffffffffffffffffffffffffffffff1673ffffffffffffffffffffffffffffffffffffffff166370a08231306040518263ffffffff1660e01b81526004016103b69190610dcf565b602060405180830381865afa1580156103d3573d6000803e3d6000fd5b505050506040513d601f19601f820116820180604052508101906103f79190610dff565b1015610438576040517f08c379a000000000000000000000000000000000000000000000000000000000815260040161042f90610f87565b60405180910390fd5b6000600160003373ffffffffffffffffffffffffffffffffffffffff1673ffffffffffffffffffffffffffffffffffffffff16815260200190815260200160002060010154905060006202a300826104909190610fd6565b9050804210156104d5576040517f08c379a00000000000000000000000000000000000000000000000000000000081526004016104cc90611078565b60405180910390fd5b83836104e19190611098565b600160003373ffffffffffffffffffffffffffffffffffffffff1673ffffffffffffffffffffffffffffffffffffffff168152602001908152602001600020600001819055506105328383336107c8565b6000600260003373ffffffffffffffffffffffffffffffffffffffff1673ffffffffffffffffffffffffffffffffffffffff1681526020019081526020016000205490506000600260003373ffffffffffffffffffffffffffffffffffffffff1673ffffffffffffffffffffffffffffffffffffffff1681526020019081526020016000208190555060008054906101000a900473ffffffffffffffffffffffffffffffffffffffff1673ffffffffffffffffffffffffffffffffffffffff16637b56c2b233836040518363ffffffff1660e01b81526004016106169291906110cc565b600060405180830381600087803b15801561063057600080fd5b505af1158015610644573d6000803e3d6000fd5b5050505060008054906101000a900473ffffffffffffffffffffffffffffffffffffffff1673ffffffffffffffffffffffffffffffffffffffff1663a9059cbb33876040518363ffffffff1660e01b81526004016106a39291906110cc565b6020604051808303816000875af11580156106c2573d6000803e3d6000fd5b505050506040513d601f19601f820116820180604052508101906106e69190611121565b507f59945647ef1c847843ee61b123cb5a2b68b6f77f1466683a5c6b7ecd4a8a1cc833866040516107189291906110cc565b60405180910390a15050505050565b61073081610907565b50565b6000600260008373ffffffffffffffffffffffffffffffffffffffff1673ffffffffffffffffffffffffffffffffffffffff168152602001908152602001600020549050919050565b6000600160008373ffffffffffffffffffffffffffffffffffffffff1673ffffffffffffffffffffffffffffffffffffffff168152602001908152602001600020600001549050919050565b60006018603c8085426107db9190611098565b6107e5919061117d565b6107ef919061117d565b6107f9919061117d565b905060006768155a43676e000090506000685150ae84a8cdf000009050600082670de0b6b3a7640000612710670de0b6b3a76400008a8661083a91906111ae565b610844919061117d565b61084e919061117d565b8661085991906111ae565b61086391906111ae565b61086d919061117d565b905080600260008773ffffffffffffffffffffffffffffffffffffffff1673ffffffffffffffffffffffffffffffffffffffff16815260200190815260200160002060008282546108be9190610fd6565b925050819055507ff28ead80696c20d8f2c4b30fe0abc00926c4923c4390de2cdabb35f61074fd6d85826040516108f69291906110cc565b60405180910390a150505050505050565b600073ffffffffffffffffffffffffffffffffffffffff163373ffffffffffffffffffffffffffffffffffffffff1603610976576040517f08c379a000000000000000000000000000000000000000000000000000000000815260040161096d90611254565b60405180910390fd5b8060008054906101000a900473ffffffffffffffffffffffffffffffffffffffff1673ffffffffffffffffffffffffffffffffffffffff166370a08231336040518263ffffffff1660e01b81526004016109d09190610dcf565b602060405180830381865afa1580156109ed573d6000803e3d6000fd5b505050506040513d601f19601f82011682018060405250810190610a119190610dff565b1015610a52576040517f08c379a0000000000000000000000000000000000000000000000000000000008152600401610a49906112c0565b60405180910390fd5b60008054906101000a900473ffffffffffffffffffffffffffffffffffffffff1673ffffffffffffffffffffffffffffffffffffffff166323b872dd3330846040518463ffffffff1660e01b8152600401610aaf939291906112e0565b6020604051808303816000875af1158015610ace573d6000803e3d6000fd5b505050506040513d601f19601f82011682018060405250810190610af29190611121565b506000600160003373ffffffffffffffffffffffffffffffffffffffff1673ffffffffffffffffffffffffffffffffffffffff1681526020019081526020016000206000015490506000600160003373ffffffffffffffffffffffffffffffffffffffff1673ffffffffffffffffffffffffffffffffffffffff1681526020019081526020016000206001015490508282610b8d9190610fd6565b600160003373ffffffffffffffffffffffffffffffffffffffff1673ffffffffffffffffffffffffffffffffffffffff1681526020019081526020016000206000018190555042600160003373ffffffffffffffffffffffffffffffffffffffff1673ffffffffffffffffffffffffffffffffffffffff168152602001908152602001600020600101819055506000821115610c2f57610c2e8282336107c8565b5b7fe865f22f57d0ae46c9f05f6677e4138264cb541aeb2c4bc8c82e7a9b3dd4905a3384604051610c609291906110cc565b60405180910390a1505050565b6000819050919050565b610c8081610c6d565b82525050565b6000602082019050610c9b6000830184610c77565b92915050565b600080fd5b600073ffffffffffffffffffffffffffffffffffffffff82169050919050565b6000610cd182610ca6565b9050919050565b610ce181610cc6565b8114610cec57600080fd5b50565b600081359050610cfe81610cd8565b92915050565b600060208284031215610d1a57610d19610ca1565b5b6000610d2884828501610cef565b91505092915050565b60008115159050919050565b610d4681610d31565b82525050565b6000602082019050610d616000830184610d3d565b92915050565b610d7081610c6d565b8114610d7b57600080fd5b50565b600081359050610d8d81610d67565b92915050565b600060208284031215610da957610da8610ca1565b5b6000610db784828501610d7e565b91505092915050565b610dc981610cc6565b82525050565b6000602082019050610de46000830184610dc0565b92915050565b600081519050610df981610d67565b92915050565b600060208284031215610e1557610e14610ca1565b5b6000610e2384828501610dea565b91505092915050565b600082825260208201905092915050565b7f4163636f756e7420697320656d70747900000000000000000000000000000000600082015250565b6000610e73601083610e2c565b9150610e7e82610e3d565b602082019050919050565b60006020820190508181036000830152610ea281610e66565b9050919050565b7f43616e6e6f74207769746864726177206d6f7265207468616e20796f7572206360008201527f757272656e742062616c616e6365000000000000000000000000000000000000602082015250565b6000610f05602e83610e2c565b9150610f1082610ea9565b604082019050919050565b60006020820190508181036000830152610f3481610ef8565b9050919050565b7f4e6f7420656e6f756768206c6971756964697479000000000000000000000000600082015250565b6000610f71601483610e2c565b9150610f7c82610f3b565b602082019050919050565b60006020820190508181036000830152610fa081610f64565b9050919050565b7f4e487b7100000000000000000000000000000000000000000000000000000000600052601160045260246000fd5b6000610fe182610c6d565b9150610fec83610c6d565b9250827fffffffffffffffffffffffffffffffffffffffffffffffffffffffffffffffff0382111561102157611020610fa7565b5b828201905092915050565b7f4465706f7369742069732074696d65206c6f636b656400000000000000000000600082015250565b6000611062601683610e2c565b915061106d8261102c565b602082019050919050565b6000602082019050818103600083015261109181611055565b9050919050565b60006110a382610c6d565b91506110ae83610c6d565b9250828210156110c1576110c0610fa7565b5b828203905092915050565b60006040820190506110e16000830185610dc0565b6110ee6020830184610c77565b9392505050565b6110fe81610d31565b811461110957600080fd5b50565b60008151905061111b816110f5565b92915050565b60006020828403121561113757611136610ca1565b5b60006111458482850161110c565b91505092915050565b7f4e487b7100000000000000000000000000000000000000000000000000000000600052601260045260246000fd5b600061118882610c6d565b915061119383610c6d565b9250826111a3576111a261114e565b5b828204905092915050565b60006111b982610c6d565b91506111c483610c6d565b9250817fffffffffffffffffffffffffffffffffffffffffffffffffffffffffffffffff04831182151516156111fd576111fc610fa7565b5b828202905092915050565b7f416464726573732063616e206e6f74206265206e756c6c000000000000000000600082015250565b600061123e601783610e2c565b915061124982611208565b602082019050919050565b6000602082019050818103600083015261126d81611231565b9050919050565b7f496e73756666696369656e742062616c616e6365000000000000000000000000600082015250565b60006112aa601483610e2c565b91506112b582611274565b602082019050919050565b600060208201905081810360008301526112d98161129d565b9050919050565b60006060820190506112f56000830186610dc0565b6113026020830185610dc0565b61130f6040830184610c77565b94935050505056fea264697066735822122056d088a46a5f7eabd6e9a9e592e14cb23824e7b23c479948093654214ec96b9964736f6c634300080f0033",
  "immutableReferences": {},
  "source": "// SPDX-License-Identifier: MIT\n\npragma solidity 0.8.15;\n\n\nimport \"../node_modules/@openzeppelin/contracts/token/ERC20/ERC20.sol\";\nimport \"../node_modules/@openzeppelin/contracts/token/ERC20/IERC20.sol\";\nimport \"./FAM.sol\";\n\n\n/**\n@title Family token contract by Maud Hutchinson\n@dev This contractt is stacking FAM token\n */\n\ncontract FAMStake {\n\n    /// variables\n\n\n    /// Token interface\n    FAM private FAMInstance;\n\n    /// someones address -> how much they staked;\n    mapping (address => Stake) stakeBalances;\n    mapping(address => uint) pendingRewards;\n\n    uint256 public totalSupply;\n\n    /// someones address -> who claimed they reward;\n    mapping (address => bool) public rewardClaimed;\n    \n    /// struct of an account \n      struct Stake {\n        uint amount;\n        uint depositDate;\n    } \n\n    /// Events\n   \n    event DepositRegistered(address userAddress, uint amount);\n    event WithdrawRegistered(address userAddress, uint amount);\n    event UpdatedRewards(address userAddress, uint amount);\n\n    /// Constructor\n\n    /**\n     * @dev Require the address of the FAM token contract to be able to mint FAM to users\n     * @param _FAM address of the deployed contract\n     */\n\n    constructor (address _FAM) {\n        FAMInstance = FAM(_FAM);\n        \n    }\n\n    /**\n    @dev create a pool and calculate the reward for the stacker\n     */\n    \n    function registerDeposit(uint _amount) internal {\n        require(msg.sender != address(0), \"Address can not be null\");\n        require(FAMInstance.balanceOf(msg.sender) >= _amount, \"Insufficient balance\");\n\n        // Transfer tokens to this contract\n        FAMInstance.transferFrom(msg.sender, address(this), _amount);\n\n        uint currentStake = stakeBalances[msg.sender].amount;\n        uint currentDepositDate = stakeBalances[msg.sender].depositDate;\n        // Updating the user stake\n        stakeBalances[msg.sender].amount = currentStake + _amount;\n        stakeBalances[msg.sender].depositDate = block.timestamp;\n        // We need to calculate the pending reward amount and store it\n        if(currentStake > 0) {\n            updatePendingRewards(currentStake, currentDepositDate, msg.sender);\n        }   \n\n        emit DepositRegistered(msg.sender, _amount);\n    }\n\n\n    /**\n     * @notice Updates the pending rewards balance of the user\n     * @dev never called from outside of the contract\n     * @param _stakes stake balance of the user\n     * @param _from uint date of last deposit / to calcul from\n     * @param _userAddress address of the user\n     */\n    function updatePendingRewards(uint _stakes, uint _from, address _userAddress) internal{\n        // calculating nbDay since deposit\n        uint nbDay = (block.timestamp - _from) / 60 / 60 / 24;\n        uint FAMValue = 7500000000000000000; // Converted to WEI\n        uint ETHValue = 1500000000000000000000; // DummyValue\n        // FAMValue / (NbJour * (0,01% * ((ETHValue * _stakes) / 10^18)))\n        uint FAMReward = ( ( ( nbDay * ( ( ( ETHValue * _stakes ) / 1000000000000000000 ) / 10000 ) ) * 1000000000000000000 ) / FAMValue );\n        // Updating user pending balance\n        pendingRewards[_userAddress] += FAMReward;\n\n        emit UpdatedRewards(_userAddress, FAMReward);\n    }\n\n     /**\n     * @notice Allow user to stake an amount of DAI and to add this amount to their balance.\n     * @dev Calls the registerStake internal function to process the user balance\n     */ \n    function deposit(uint256 _amount) payable external {\n        registerDeposit(_amount);\n    }\n\n     /**\n     * @notice Return the provided address balance\n     * @param _userAddress address of the user\n     */ \n    function getBalance(address _userAddress) view external returns(uint){\n        return stakeBalances[_userAddress].amount;\n    }\n\n\n     /**\n     * @notice Return the total staked DAI tokens \n     * @dev Calls the balanceOf ERC20 function to return the total staked FAM tokens on this contract \n     */ \n    function getTotalStaked() view external returns(uint) {\n        return FAMInstance.balanceOf(address(this));\n    }\n\n\n     /**\n     * @notice Return a user pending reward balance\n     * @param _userAddress address of the user\n     */\n    function getPendingRewards(address _userAddress) view external returns(uint){\n        return pendingRewards[_userAddress];\n    }\n\n     \n    \n    /**\n     * @notice Allow user to unstake an amount of DAI from their account if balance is sufficient. There is a timelock on deposit of 2 days.\n     * @dev Will revert if the contract DAI balance is not sufficient to fullfill the withdrawal\n     * @param _amount uint - Number of wei to withdraw\n     */\n    function withdraw(uint _amount) external {\n        // verifications on the user balance\n        uint userStake = stakeBalances[msg.sender].amount;\n        require(userStake != 0, \"Account is empty\");\n        require(userStake >= _amount, \"Cannot withdraw more than your current balance\");\n        require(FAMInstance.balanceOf(address(this)) >= _amount, \"Not enough liquidity\");\n        // Storing the current date of reference and calculating the lock release\n        uint referenceDate = stakeBalances[msg.sender].depositDate;\n        uint timeLock = referenceDate + 2 days;\n        require(block.timestamp >= timeLock, \"Deposit is time locked\");\n\n        // Updating the user's stake\n        stakeBalances[msg.sender].amount = userStake - _amount;\n\n        // Calculating and updating the pending rewards amount\n        updatePendingRewards(userStake, referenceDate, msg.sender);\n        uint rewardsToMint = pendingRewards[msg.sender];\n        pendingRewards[msg.sender] = 0;\n        \n        // Minting the rewards to the user using the faucet function of the FAM contract\n        FAMInstance.faucet(msg.sender, rewardsToMint);\n\n        // Transfering back the amount to the user\n        FAMInstance.transfer(msg.sender, _amount);\n        \n        // TODO Error management\n\n        emit WithdrawRegistered(msg.sender, _amount);\n    }\n    \n\n}",
  "sourcePath": "/home/yohann/code/Family-staking/truffle/contracts/FAMStake.sol",
  "compiler": {
    "name": "solc",
    "version": "0.8.15+commit.e14f2714.Emscripten.clang"
  },
  "schemaVersion": "3.4.8",
  "updatedAt": "2022-08-07T21:53:06.048Z",
  "networkType": "ethereum",
  "devdoc": {
    "details": "This contractt is stacking FAM token",
    "kind": "dev",
    "methods": {
      "constructor": {
        "details": "Require the address of the FAM token contract to be able to mint FAM to users",
        "params": {
          "_FAM": "address of the deployed contract"
        }
      },
      "deposit(uint256)": {
        "details": "Calls the registerStake internal function to process the user balance"
      },
      "getBalance(address)": {
        "params": {
          "_userAddress": "address of the user"
        }
      },
      "getPendingRewards(address)": {
        "params": {
          "_userAddress": "address of the user"
        }
      },
      "getTotalStaked()": {
        "details": "Calls the balanceOf ERC20 function to return the total staked FAM tokens on this contract "
      },
      "withdraw(uint256)": {
        "details": "Will revert if the contract DAI balance is not sufficient to fullfill the withdrawal",
        "params": {
          "_amount": "uint - Number of wei to withdraw"
        }
      }
    },
    "title": "Family token contract by Maud Hutchinson",
    "version": 1
  },
  "userdoc": {
    "events": {
      "DepositRegistered(address,uint256)": {
        "notice": "Events"
      }
    },
    "kind": "user",
    "methods": {
      "deposit(uint256)": {
        "notice": "Allow user to stake an amount of DAI and to add this amount to their balance."
      },
      "getBalance(address)": {
        "notice": "Return the provided address balance"
      },
      "getPendingRewards(address)": {
        "notice": "Return a user pending reward balance"
      },
      "getTotalStaked()": {
        "notice": "Return the total staked DAI tokens "
      },
      "rewardClaimed(address)": {
        "notice": "someones address -> who claimed they reward;"
      },
      "withdraw(uint256)": {
        "notice": "Allow user to unstake an amount of DAI from their account if balance is sufficient. There is a timelock on deposit of 2 days."
      }
    },
    "version": 1
  }
}